:1000000012C02CC02BC02AC029C028C027C026C0BF
:1000100025C024C023C022C021C020C01FC01EC0D4
:100020001DC01CC01BC011241FBECFE5D4E0DEBF25
:10003000CDBF10E0A0E6B0E0EAE7F2E002C0059034
:100040000D92AE37B107D9F720E0AEE7B0E001C0BE
:100050001D92A438B207E1F795D0B6C0D1CF8D314B
:1000600030F4E82FF0E0E05AFF4F808108958FEFE1
:1000700008958D3158F4E82FF0E0EA51FF4F0994CC
:1000800082B3089588B3089585B308958FEF0895D6
:100090008D3158F4E82FF0E0ED5FFE4F099480B306
:1000A000089586B3089583B308958FEF08958D3131
:1000B00058F4E82FF0E0E05EFE4F099481B3089514
:1000C00087B3089584B308958FEF0895D2CFCF9367
:1000D000DF93D82FC4DFC82F8D2FDADF21E030E087
:1000E0000C2E02C0220F331F0A94E2F790E0822305
:1000F000932302C095958795CA95E2F7DF91CF913A
:1001000008951F93CF93DF93182FD62FA8DFC82F02
:10011000812FCDDFD1110DC081B321E030E001C0CE
:10012000220FCA95EAF7822B81BBDF91CF911F91F5
:100130000895D130D1F741B381E090E001C0880F3C
:10014000CA95EAF780958423EFCF08958AB59BB5C9
:1001500090938100809380008FB583688FBD8EB5AA
:1001600082608EBD089583B590E090938300809364
:1001700082000895FB01EE0FFF1FE258FF4F9183AD
:10018000808308958F9A8C9A979A949AA09AA89AA5
:10019000BA9AC29AB89830E121E094E082B38058CC
:1001A00082BB82B3832782BB85B3822785BB88B39A
:1001B000892788BB4FE75AE186E041505040804094
:1001C000E1F700C00000EACFF894FFCF59CF5CCF31
:1001D00057CF56CF55CF54CF57CF54CF57CF52CFFD
:1001E00051CF4ECF4DCF4CCF4DCF4CCF4BCF4ACF31
:1001F00049CF48CF4BCF4ACF49CF46CF45CF44CF49
:1002000043CF42CF41CF4BCF4ECF49CF48CF47CF3F
:1002100046CF49CF46CF49CF44CF43CF40CF3FCF42
:100220003ECF3FCF3ECF3DCF3CCF3BCF3ACF3DCF70
:100230003CCF3BCF38CF37CF36CF35CF34CF33CF8E
:100240003DCF40CF3BCF3ACF39CF38CF3BCF38CF60
:100250003BCF36CF35CF32CF31CF30CF31CF30CF8C
:100260002FCF2ECF2DCF2CCF2FCF2ECF2DCF2ACFAC
:0A02700029CF28CF27CF26CF25CFB6
:10027A000006000102030607FF060705060700013C
:0E028A0002030405FFFFFF000102030405004C
:00000001FF
