:1000000012C019C018C017C016C015C014C013C044
:1000100012C012C010C00FC00EC00DC00CC00BC06B
:100020000AC009C008C011241FBECFE5D4E0DEBF5E
:10003000CDBF31D049C0E4CF8F938FB78F9382B3B8
:10004000805882BB8F918FBF8F91189587B185643F
:1000500087B986B1866886B9369A0895BA9A8FB5F7
:1000600083628FBD8EB582608EBD19BC18BC0895A9
:1000700083B7856083BF89B7816089BF0895369A49
:10008000349BFECF84B195B108959F708095909573
:1000900099BD88BD08958F9A979A8C9A949AA09A40
:1000A000A89AB898E5DFDADFD1DF8FEF9FEF99BD2F
:1000B00088BD7894CFEFDFEFB09B03C0D9BDC8BD3A
:0C00C000FBCFDDDFE2DFF8CFF894FFCFCC
:00000001FF
