:1000000012C019C018C017C016C015C014C013C044
:1000100012C011C010C00FC00EC00DC00CC00BC06C
:100020000AC009C008C011241FBECFE5D4E0DEBF5E
:10003000CDBF1AD03CC0E4CF0895BA9A8FB5836281
:100040008FBD8EB582608EBD89E490E097BD86BD80
:1000500019BC18BC089584E690E008959F708095BF
:10006000909599BD88BD08958F9A979A8C9A949A85
:10007000A59AAD9AA09AA89AB898DFDF8FEF90EF73
:1000800099BD88BD20E191E082B3805882BB82B3E4
:10009000822782BB85B3892785BB3FE74AE186E09B
:1000A000315040408040E1F700C00000EDCFF894AF
:0200B000FFCF80
:00000001FF
